{
  "_format": "hh-sol-artifact-1",
  "contractName": "Tree",
  "sourceName": "contracts/Tree.sol",
  "abi": [
    {
      "inputs": [],
      "stateMutability": "nonpayable",
      "type": "constructor"
    },
    {
      "inputs": [
        {
          "internalType": "string",
          "name": "input",
          "type": "string"
        }
      ],
      "name": "encode",
      "outputs": [
        {
          "internalType": "bytes",
          "name": "",
          "type": "bytes"
        }
      ],
      "stateMutability": "pure",
      "type": "function"
    },
    {
      "inputs": [
        {
          "internalType": "uint256",
          "name": "",
          "type": "uint256"
        }
      ],
      "name": "hashes",
      "outputs": [
        {
          "internalType": "bytes32",
          "name": "",
          "type": "bytes32"
        }
      ],
      "stateMutability": "view",
      "type": "function"
    },
    {
      "inputs": [
        {
          "internalType": "string",
          "name": "input",
          "type": "string"
        }
      ],
      "name": "makeHash",
      "outputs": [
        {
          "internalType": "bytes32",
          "name": "",
          "type": "bytes32"
        }
      ],
      "stateMutability": "pure",
      "type": "function"
    },
    {
      "inputs": [
        {
          "internalType": "string",
          "name": "transaction",
          "type": "string"
        },
        {
          "internalType": "uint256",
          "name": "index",
          "type": "uint256"
        },
        {
          "internalType": "bytes32",
          "name": "root",
          "type": "bytes32"
        },
        {
          "internalType": "bytes32[]",
          "name": "proof",
          "type": "bytes32[]"
        }
      ],
      "name": "verify",
      "outputs": [
        {
          "internalType": "bool",
          "name": "",
          "type": "bool"
        }
      ],
      "stateMutability": "pure",
      "type": "function"
    }
  ],
  "bytecode": "0x608060405260405180608001604052806040518060400160405280601581526020017f5458313a20536865726c6f636b202d3e204a6f686e000000000000000000000081525081526020016040518060400160405280601581526020017f5458323a204a6f686e202d3e20536865726c6f636b000000000000000000000081525081526020016040518060400160405280601181526020017f5458333a204a6f686e202d3e204d61727900000000000000000000000000000081525081526020016040518060400160405280601581526020017f5458333a204d617279202d3e20536865726c6f636b000000000000000000000081525081525060019060046200010b9291906200039b565b503480156200011957600080fd5b5060005b60048110156200021e576000620001e2600183600481106200014457620001436200047b565b5b0180546200015290620004d9565b80601f01602080910402602001604051908101604052809291908181526020018280546200018090620004d9565b8015620001d15780601f10620001a557610100808354040283529160200191620001d1565b820191906000526020600020905b815481529060010190602001808311620001b357829003601f168201915b50505050506200034f60201b60201c565b90806001815401808255809150506001900390600052602060002001600090919091909150558080620002159062000547565b9150506200011d565b5060006004905060005b6000821115620003475760005b60018362000244919062000594565b8110156200031f5760008082846200025d9190620005cf565b815481106200027157620002706200047b565b5b90600052602060002001546000600184866200028e9190620005cf565b6200029a9190620005cf565b81548110620002ae57620002ad6200047b565b5b9060005260206000200154604051602001620002cc92919062000639565b604051602081830303815290604052805190602001209080600181540180825580915050600190039060005260206000200160009091909190915055600281620003179190620005cf565b905062000235565b5081816200032e9190620005cf565b90506002826200033f919062000698565b915062000228565b505062000a4a565b600062000362826200037060201b60201c565b805190602001209050919050565b60608160405160200162000385919062000749565b6040516020818303038152906040529050919050565b8260048101928215620003db579160200282015b82811115620003da578251829081620003c9919062000963565b5091602001919060010190620003af565b5b509050620003ea9190620003ee565b5090565b5b8082111562000412576000818162000408919062000416565b50600101620003ef565b5090565b5080546200042490620004d9565b6000825580601f1062000438575062000459565b601f0160209004906000526020600020908101906200045891906200045c565b5b50565b5b80821115620004775760008160009055506001016200045d565b5090565b7f4e487b7100000000000000000000000000000000000000000000000000000000600052603260045260246000fd5b7f4e487b7100000000000000000000000000000000000000000000000000000000600052602260045260246000fd5b60006002820490506001821680620004f257607f821691505b602082108103620005085762000507620004aa565b5b50919050565b7f4e487b7100000000000000000000000000000000000000000000000000000000600052601160045260246000fd5b6000819050919050565b600062000554826200053d565b91507fffffffffffffffffffffffffffffffffffffffffffffffffffffffffffffffff82036200058957620005886200050e565b5b600182019050919050565b6000620005a1826200053d565b9150620005ae836200053d565b9250828203905081811115620005c957620005c86200050e565b5b92915050565b6000620005dc826200053d565b9150620005e9836200053d565b92508282019050808211156200060457620006036200050e565b5b92915050565b6000819050919050565b6000819050919050565b620006336200062d826200060a565b62000614565b82525050565b60006200064782856200061e565b6020820191506200065982846200061e565b6020820191508190509392505050565b7f4e487b7100000000000000000000000000000000000000000000000000000000600052601260045260246000fd5b6000620006a5826200053d565b9150620006b2836200053d565b925082620006c557620006c462000669565b5b828204905092915050565b600081519050919050565b600081905092915050565b60005b8381101562000706578082015181840152602081019050620006e9565b60008484015250505050565b60006200071f82620006d0565b6200072b8185620006db565b93506200073d818560208601620006e6565b80840191505092915050565b600062000757828462000712565b915081905092915050565b7f4e487b7100000000000000000000000000000000000000000000000000000000600052604160045260246000fd5b60008190508160005260206000209050919050565b60006020601f8301049050919050565b600082821b905092915050565b600060088302620007f57fffffffffffffffffffffffffffffffffffffffffffffffffffffffffffffffff82620007b6565b620008018683620007b6565b95508019841693508086168417925050509392505050565b6000819050919050565b6000620008446200083e62000838846200053d565b62000819565b6200053d565b9050919050565b6000819050919050565b620008608362000823565b620008786200086f826200084b565b848454620007c3565b825550505050565b600090565b6200088f62000880565b6200089c81848462000855565b505050565b5b81811015620008c457620008b860008262000885565b600181019050620008a2565b5050565b601f8211156200091357620008dd8162000791565b620008e884620007a6565b81016020851015620008f8578190505b620009106200090785620007a6565b830182620008a1565b50505b505050565b600082821c905092915050565b6000620009386000198460080262000918565b1980831691505092915050565b600062000953838362000925565b9150826002028217905092915050565b6200096e82620006d0565b67ffffffffffffffff8111156200098a576200098962000762565b5b620009968254620004d9565b620009a3828285620008c8565b600060209050601f831160018114620009db5760008415620009c6578287015190505b620009d2858262000945565b86555062000a42565b601f198416620009eb8662000791565b60005b8281101562000a1557848901518255600182019150602085019450602081019050620009ee565b8683101562000a35578489015162000a31601f89168262000925565b8355505b6001600288020188555050505b505050505050565b61090e8062000a5a6000396000f3fe608060405234801561001057600080fd5b506004361061004c5760003560e01c80632637cccf14610051578063501895ae1461008157806352de70af146100b15780636a11b2a8146100e1575b600080fd5b61006b600480360381019061006691906104e0565b610111565b604051610078919061059a565b60405180910390f35b61009b600480360381019061009691906105b5565b6101ec565b6040516100a891906105f1565b60405180910390f35b6100cb60048036038101906100c6919061060c565b610210565b6040516100d891906105f1565b60405180910390f35b6100fb60048036038101906100f6919061060c565b610229565b60405161010891906106d4565b60405180910390f35b60008061011d86610210565b905060005b83518110156101dd5760008482815181106101405761013f6106f6565b5b6020026020010151905060006002886101599190610754565b0361018e5782816040516020016101719291906107a6565b6040516020818303038152906040528051906020012092506101ba565b80836040516020016101a19291906107a6565b6040516020818303038152906040528051906020012092505b6002876101c79190610801565b96505080806101d590610832565b915050610122565b50838114915050949350505050565b600081815481106101fc57600080fd5b906000526020600020016000915090505481565b600061021b82610229565b805190602001209050919050565b60608160405160200161023c91906108c1565b6040516020818303038152906040529050919050565b6000604051905090565b600080fd5b600080fd5b600080fd5b600080fd5b6000601f19601f8301169050919050565b7f4e487b7100000000000000000000000000000000000000000000000000000000600052604160045260246000fd5b6102b982610270565b810181811067ffffffffffffffff821117156102d8576102d7610281565b5b80604052505050565b60006102eb610252565b90506102f782826102b0565b919050565b600067ffffffffffffffff82111561031757610316610281565b5b61032082610270565b9050602081019050919050565b82818337600083830152505050565b600061034f61034a846102fc565b6102e1565b90508281526020810184848401111561036b5761036a61026b565b5b61037684828561032d565b509392505050565b600082601f83011261039357610392610266565b5b81356103a384826020860161033c565b91505092915050565b6000819050919050565b6103bf816103ac565b81146103ca57600080fd5b50565b6000813590506103dc816103b6565b92915050565b6000819050919050565b6103f5816103e2565b811461040057600080fd5b50565b600081359050610412816103ec565b92915050565b600067ffffffffffffffff82111561043357610432610281565b5b602082029050602081019050919050565b600080fd5b600061045c61045784610418565b6102e1565b9050808382526020820190506020840283018581111561047f5761047e610444565b5b835b818110156104a857806104948882610403565b845260208401935050602081019050610481565b5050509392505050565b600082601f8301126104c7576104c6610266565b5b81356104d7848260208601610449565b91505092915050565b600080600080608085870312156104fa576104f961025c565b5b600085013567ffffffffffffffff81111561051857610517610261565b5b6105248782880161037e565b9450506020610535878288016103cd565b935050604061054687828801610403565b925050606085013567ffffffffffffffff81111561056757610566610261565b5b610573878288016104b2565b91505092959194509250565b60008115159050919050565b6105948161057f565b82525050565b60006020820190506105af600083018461058b565b92915050565b6000602082840312156105cb576105ca61025c565b5b60006105d9848285016103cd565b91505092915050565b6105eb816103e2565b82525050565b600060208201905061060660008301846105e2565b92915050565b6000602082840312156106225761062161025c565b5b600082013567ffffffffffffffff8111156106405761063f610261565b5b61064c8482850161037e565b91505092915050565b600081519050919050565b600082825260208201905092915050565b60005b8381101561068f578082015181840152602081019050610674565b60008484015250505050565b60006106a682610655565b6106b08185610660565b93506106c0818560208601610671565b6106c981610270565b840191505092915050565b600060208201905081810360008301526106ee818461069b565b905092915050565b7f4e487b7100000000000000000000000000000000000000000000000000000000600052603260045260246000fd5b7f4e487b7100000000000000000000000000000000000000000000000000000000600052601260045260246000fd5b600061075f826103ac565b915061076a836103ac565b92508261077a57610779610725565b5b828206905092915050565b6000819050919050565b6107a061079b826103e2565b610785565b82525050565b60006107b2828561078f565b6020820191506107c2828461078f565b6020820191508190509392505050565b7f4e487b7100000000000000000000000000000000000000000000000000000000600052601160045260246000fd5b600061080c826103ac565b9150610817836103ac565b92508261082757610826610725565b5b828204905092915050565b600061083d826103ac565b91507fffffffffffffffffffffffffffffffffffffffffffffffffffffffffffffffff820361086f5761086e6107d2565b5b600182019050919050565b600081519050919050565b600081905092915050565b600061089b8261087a565b6108a58185610885565b93506108b5818560208601610671565b80840191505092915050565b60006108cd8284610890565b91508190509291505056fea26469706673582212209d39af13a4f6c8048ff200376429df09ba537ffe160aa2b1b1d7ff12d06be18664736f6c63430008130033",
  "linkReferences": {},
  "deployedLinkReferences": {}
}